:20C000000A12B240805A2001B01240C0B01272C0B0129AC0B01200C14A437A9009000A2CEC
:20C02000D2E321003C40A000B012B6C05A537A900900F62BF2F0BF00210032D09000EC3F76
:20C04000F2422100F24041002200F2422700F2422400C2432300F2422500C2432900F2F0B2
:20C060003F002E00C2432A00C2432C00C2432B003041C2435800F293FF100824C2435600DA
:20C08000D242FF105700D242FE105600F2D080005700F240240053003041E2C302000D1235
:20C0A0003D400E001D83FE233D410343E2B30200F42332D230410F4C0F9306243C40E803BF
:20C0C000B012EEC01F83FA233041B1C090000000F2D040002100C2432300001331400004EC
:20C0E000B01216C10C43B01200C0B01210C112C30C100C110C93032403431C83FD233041F9
:1AC10000B240805A2001304132D01000FD3F03430343FF3F03431C43304199
:02FFDE00FFFF23
:02FFE00008C156
:02FFE400CAC091
:02FFE60008C150
:02FFEA0008C14C
:02FFEC0008C14A
:02FFEE0008C148
:02FFF00008C146
:02FFF20008C144
:02FFF40008C142
:02FFF60008C140
:02FFF80008C13E
:02FFFA0008C13C
:02FFFC0008C13A
:02FFFE00DCC065
:00000001FF
