:20C000000A12B240805A2001B01264C6B012BAC3B01288C3B01286C6B0126CC6B012B2C1A8
:20C02000B01210C64C434D43B0123AC53C4090C6B012C0C53C400010B01282C60A4C4C43F4
:20C040005D43B0123AC53C40A2C6B012C0C57C4009005D43B0123AC53C40AAC6B012C0C5FB
:20C060007C400D005D430E4AB012CCC03C40D007B012E8C5F2B220001A20F2B22000FD2709
:20C080003C400010B012C2C40D4AB012EAC47C400D005D430E4AB012CCC0D2D321000D1211
:20C0A0003D4013341D83FE233D41D2C321003C401400B012E8C56C425D430E4AB012CCC0D4
:20C0C0005A533C40C800B012E8C5D43F0A12091208120712074E084D094C4C473D40640010
:20C0E000B01240C43A4030004A5C0C490D48B0123AC50C4AB012ACC54C473D400A00B0125A
:20C1000040C43D400A00B01240C43A4030004A5E1C434C590D48B0123AC50C4AB012ACC5D9
:20C120004C473D400A00B01240C43A4030004A5E2C434C590D48B0123AC50C4AB012ACC51A
:20C1400030404CC60A1209123F4000003F90000004243C400000B01212C23F40B2C63F90D8
:20C16000B4C616243F40B4C63F90B8C611243A40B8C63A80B4C60A110A113940B4C63C49B6
:20C180007F4C0F5F1F4FB2C63D498F121A83F723B0128EC63F4000003F90000008243A4098
:20C1A0000000023C3F4A8F123A900000FB23304050C6B01256C63C406400B012E8C5D24367
:20C1C0000002E24201025C420102B01298C43C400A00B012E8C57C4033004D43B01208C376
:20C1E0007C4032004D43B01208C37C4028004D43B01208C37C400C004D43B01208C35C43AF
:20C200004D43B01208C37C4006004D43B01208C330410A120912094C1B4902000A43223C14
:20C220000C4A3D400600B012FCC50C591E4C08001D4C04001F4C06000C4F0E930E203E4045
:20C24000B2C63E90B4C60D246E4D0E5E1E4EB2C61D530C4D0D4F8E12023CB01234C61B49BF
:20C2600002001A530A9BDC2B304050C60A120912094CF2D080002200F2F0BF0021007A42AF
:20C280004A931C2479B080FF0420F2F07F002100033CF2D08000210049592C43B01222C6D6
:20C2A000F2D0400021002C43B01222C6F2F0BF0021002C43B01222C65A83E423304050C6FD
:20C2C0000A120A4C3C40F0000F4A4FFC3C400F005CF201024CDFC24C0102B01298C4B012E4
:20C2E00012C54C4A3CF00F00B0128EC44F4C3C400F005CF201024CDFC24C0102B01298C4B1
:20C30000B01212C53A4130410A120A4C4D4D0D9305241D830620D2D30102033CF2F0F40040
:20C3200001025F4200020F9305241F830520F2D20102023CF2C201025C420102B01298C44A
:20C340000C4AB012C0C22C43B012E8C53A413041F2F0BF002100F2D0800022007C93042020
:20C36000F2F07F002100033CF2D0800021002C43B01222C6F2D0400021002C43B01222C644
:20C38000F2F0BF0021003041C2435800F293FD100E240D123D4033821D83FE233D41C243B4
:20C3A0005600D242FD105700D242FC105600F2D080005700E24253003041F2422100D2434E
:20C3C0002200F2422700C2432400C2432300C2432900C2432A00C2432C00C2432B00C243CC
:20C3E0001900C2431A003041F2D080002200F2D080002100F2D0400021002C42B01222C692
:20C40000F2F07F0021002C42B01222C6F2F0BF0021003041F2D080002200F2F07F00210069
:20C42000F2F0BF0021002C42B01222C6F2D080002100F2D0400021002C42B01222C6304113
:20C440000B430D9303343DE31D531BD30C9303343CE31C533BE3B01296C51BB302243CE387
:20C460001C532BB302243EE31E5330413DF00F003DE00F000D5D005D0C5C0C5C0C5C0C5C77
:20C480000C5C0C5C0C5C0C5C0C5C0C5C0C5C0C5C0C5C0C5C0C5C30410A120A4CB012E8C3D4
:20C4A0007C404E00B0126CC27C43B01250C30C4AB0126CC27C43B01250C3B01214C43A41FF
:20C4C0003041B24002A52801B24000A52C0132C2CC43000092B32C01FD2332D2B24000A535
:20C4E0002801B24010A52C013041B24040A52801B24000A52C0132C2CC4D000092B32C018B
:20C50000FD2332D2B24000A52801B24010A52C013041E2D201025C420102B01298C42C430D
:20C52000B012E8C5F2F0F90001025C420102B01298C42C43B012E8C530410F4C4D9307203E
:20C540003C4080004CDF4D43B01208C3063C3C40C0004CDF4D43B01208C33041F2D080001E
:20C560002200F2D0400022001C43B012E8C5F2D080002100F2D0400021003041314000043B
:20C58000B0128AC60C930224B01244C10C43B01200C0B0127CC60E430F4C1C430F5F0E6E33
:20C5A0000E9D01280E8D0C6CF92B30417C90200006287C908000032C5D43B01208C330414C
:20C5C0000A120A4C7C4AB012ACC5CA930000FA233A4130411F4C01000F9305241D53CD43D3
:20C5E000FFFF1F83FB2330410F4C0F9306243C40E803B01222C61F83FA2330410E4312C37E
:20C600000C1001280E5D0D5D0C93F9230C4E30415C434D43B01208C36C434D43B01208C3F2
:20C6200030413CF0FF1F0C5C0C93032403431C83FD2330410E9306240F4C1F53FF4DFFFFB9
:20C640001E83FB2330413441354136413741384139413A413041B0125CC53C406400B0126C
:20C66000E8C53041B24055A52A013041B240805A2001304132D01000FD3F03430343FF3F9E
:10C6800003436C4C304132D230411C433041304185
:1EC690004D535034333020466C6173682045782E000057523A202D2D2D0052443A0092
:0AC6AE0000000200D4C5AEC6000271
:02FFDE00FFFF23
:02FFE00074C6E5
:02FFE40074C6E1
:02FFE60074C6DF
:02FFEA0074C6DB
:02FFEC0074C6D9
:02FFEE0074C6D7
:02FFF00074C6D5
:02FFF20074C6D3
:02FFF40074C6D1
:02FFF60074C6CF
:02FFF80074C6CD
:02FFFA0074C6CB
:02FFFC0074C6C9
:02FFFE007CC5C0
:00000001FF
