:20C00000C2432100F24011002600F24051002200C2432400C2432300C2432900C2432A003E
:20C02000C2432C00C2432B00C2431900C2431A003041F2401E005800F293FF100824C24384
:20C040005600D242FF105700D242FE105600F2D080005700F240240053003041B240805A19
:20C060002001B01200C0B01232C0B0127CC0B012A8C0F2E0400021000343FB3FE2C30200E7
:20C080000D123D4006001D83FE233D41E2B30200F52332D2304131400004B012BEC00C4397
:20C0A000B0125CC0B012B8C0B240805A2001304132D01000FD3F03430343FF3F03431C434D
:02C0C00030410D
:02FFDE00FFFF23
:02FFE000B0C0AF
:02FFE400B0C0AB
:02FFE600B0C0A9
:02FFEA00B0C0A5
:02FFEC00B0C0A3
:02FFEE00B0C0A1
:02FFF000B0C09F
:02FFF200B0C09D
:02FFF400B0C09B
:02FFF600B0C099
:02FFF800B0C097
:02FFFA00B0C095
:02FFFC00B0C093
:02FFFE0096C0AB
:00000001FF
