:20E00000B240805A2001B0123AE0B01264E0B0129CE0B012BAE0B012A4E0053CD2D321004A
:20E02000F2F0BF002100B29000807001F72BF2D040002100D2C32100F63FC2432100F24063
:20E0400041002200C2432400C2432300C2432900F2F03F002E00C2432A00C2432C00C2432A
:20E060002B003041C2435800F293FF100824C2435600D242FF105700D242FE105600F2D0D8
:20E0800080005700E2425300304131400003B012BEE00C43B01200E0B012B4E0B240E002D2
:20E0A00060013041B240805A2001304132D01000FD3F03430343FF3F034332D230411C43FE
:04E0C00030410013D8
:02FFE400ACE08F
:02FFE600ACE08D
:02FFE800ACE08B
:02FFEA00ACE089
:02FFF000C2E06D
:02FFF200ACE081
:02FFF400ACE07F
:02FFF600ACE07D
:02FFFC00ACE077
:02FFFE008AE097
:00000001FF
