:20C000000A124A43B240805A2001B012F8C6B012BAC7B012C0C8B012D4C8B01272C8B01261
:20C020007CC9B0128EC1B01224C94C434D43B01230C83C4098C9B012A8C83C400A00B012CB
:20C04000FCC8F2B220000C20D2D32100F2B22000FD275A537A900A0001284A43D2C3210051
:20C060004F4A1F833F9009000C2C0F5F104F70C05AC142C12AC112C1FAC0E2C0CAC0B2C044
:20C080009AC0B240341B72014C435D43B01230C83C40A2C9B012A8C86B3CB240F301720190
:20C0A0004C435D43B01230C83C40B4C9B012A8C85F3CB240E31172014C435D43B01230C88F
:20C0C0003C40C6C9B012A8C8533CB240420A72014C435D43B01230C83C40D8C9B012A8C8AB
:20C0E000473CB240CE0472014C435D43B01230C83C40EAC9B012A8C83B3CB240A6007201BA
:20C100004C435D43B01230C83C40FCC9B012A8C82F3CB240E70372014C435D43B01230C820
:20C120003C400ECAB012A8C8233CB240CF0772014C435D43B01230C83C4020CAB012A8C85E
:20C14000173CB240871372014C435D43B01230C83C4032CAB012A8C80B3CB2400F27720118
:20C160004C435D43B01230C83C4044CAB012A8C81E42020212C30E100F437C400A004D431B
:20C18000B012B2C23C409001B012FCC85A3FB01252C8D2430802E24209025C420902B012A8
:20C1A0000AC8F2401A000902C293090206241C43B012FCC8D2830902FA23F24030000902FD
:20C1C0005C420902B0120AC8E2D209025C420902B0120AC81C43B012FCC8F2F0F100090263
:20C1E0005C420902B0120AC81C43B012FCC8F240300009025C420902B0120AC8E2D20902B4
:20C200005C420902B0120AC81C43B012FCC8F2F0F10009025C420902B0120AC81C43B012C0
:20C22000FCC8F240300009025C420902B0120AC8E2D209025C420902B0120AC81C43B01273
:20C24000FCC8F2F0F10009025C420902B0120AC81C43B012FCC8F240200009025C42090214
:20C26000B0120AC8E2D209025C420902B0120AC81C43B012FCC8F2F0F10009025C420902C2
:20C28000B0120AC81C43B012FCC87C4028004D43B01268C67C400C004D43B01268C65C43DA
:20C2A0004D43B01268C67C4006004D43B01268C630410A1209120812071231800600094ED3
:20C2C0000A4F084D074C0C413D4056CA3E400600B0125AC90C490D4A3E40A0861F43B01296
:20C2E00070C53E400A000F43B01270C57E503000C14E00000C490D4A3E4010270F43B012B6
:20C3000070C53E400A000F43B01270C57E503000C14E01000C490D4A3E40E8030F43B012E0
:20C3200070C53E400A000F43B01270C57E503000C14E02000C490D4A3E4064000F43B01246
:20C3400070C53E400A000F43B01270C57E503000C14E03000C490D4A3E400A000F43B0127F
:20C3600070C53E400A000F43B01270C57E503000C14E04000C490D4A3E400A000F43B0125E
:20C3800070C57E503000C14E05000C470D48B01230C80C41B012A8C831500600304072C943
:20C3A0000A120A4C3C40F0000F4A4FFC3C400F005CF209024CDFC24C0902B0120AC8E2D28B
:20C3C00009025C420902B0120AC81C43B012FCC8F2F0F90009025C420902B0120AC81C43AE
:20C3E000B012FCC84C4A3CF00F00B012B0C74F4C3C400F005CF209024CDFC24C0902B01228
:20C400000AC8E2D209025C420902B0120AC81C43B012FCC8F2F0F90009025C420902B01218
:20C420000AC81C43B012FCC83A4130410A12091208120A4C784A0943113C0E4D0E8B1E83C2
:20C440001D53FD4EFFFF1F83FB23033C1D53FD4AFFFF12C3081019533992EC3718B3F62344
:20C460007B4A7F4A0C4BB012B0C70B4C0C4FB01256C63CF00F000BDC3FF00F003F5003001C
:20C480003F9012000C207E4A3EB0800007247C4A4C4CB012AAC73EF07F000EDC0F5E3B90CE
:20C4A000FF0FCB23304074C90A1209123F4000003F90000004243C400000B01216C53F408E
:20C4C00064CA3F906ACA16243F406ECA3F9076CA11243A4076CA3A806ECA0A110A1139409B
:20C4E0006ECA3C497F4C0F5F1F4F64CA3D498F121A83F723B01296C93F4000003F9000005D
:20C5000008243A400000023C3F4A8F123A900000FB23304076C90A120912094C1B49020084
:20C520000A43223C0C4A3D400600B01210C90C591E4C08001D4C04001F4C06000C4F0E932B
:20C540000E203E4064CA3E906ACA0D246E4D0E5E1E4E64CA1D530C4D0D4F8E12023CB01248
:20C560005AC91B4902001A530A9BDC2B304076C90A12091209430A431B430F930424094D1C
:20C580000D4C0C430D3C0C5C0D6D0969098E04281CD30B5BF82B033C095E0B5BF42B1B4392
:20C5A0000C5C0D6D09690A6A098E0A7F04281CD30B5BF62B043C095E0A6F0B5BF12B0E49F8
:20C5C0000F4A39413A4130410A120912094CF2D080002200F2F0BF0021007A424A931C2411
:20C5E00079B080FF0420F2F07F002100033CF2D08000210049592C43B01248C9F2D0400065
:20C6000021002C43B01248C9F2F0BF0021002C43B01248C95A83E423304076C93DF00F00E4
:20C620003DE00F000D5D0D5D005D12C30C1012C30C1012C30C1012C30C1012C30C1012C313
:20C640000C1012C30C1012C30C1012C30C1012C30C1012C30C1012C30C1012C30C1012C352
:20C660000C1012C30C1030410A120A4C4D4D0D9305241D830620D2D30902033CF2F0F400DC
:20C6800009025F4208020F9305241F830520F2D20902023CF2C209025C420902B0120AC849
:20C6A0000C4AB012A0C33C400A00B012FCC83A4130410A123A40E803F2F07F002200F2D041
:20C6C000800021001C43B01248C9F2D0400021001C43B01248C9F2B080FF20000520F2F0EA
:20C6E000BF0021004C43063C1A831A93F437B01262C75C433A413041F2422100E2432600FE
:20C70000F240C3002200F2422700C2432400C2432300C2432900E2432E00F2F03F002E0086
:20C72000C2432A00C2432C00C2432B00C2431900C2431A003041F2D080002200F2D0800015
:20C740002100F2D0400021002C42B01248C9F2F07F0021002C42B01248C9F2F0BF002100CF
:20C760003041F2D080002200F2F07F002100F2F0BF0021002C42B01248C9F2D080002100FC
:20C78000F2D0400021002C42B01248C930413DF00F003DE00F000D5D005D0C5C0C5C0C5C5D
:20C7A0000C5C0C5C0C5C0C5C0C5C0C5C0C5C0C5C0C5C0C5C0C5C0C5C3041C2435800F29346
:20C7C000FF100824C2435600D242FF105700D242FE105600F2D080005700F240240053008F
:20C7E00030410F12A2931E010E209242940106021F4206021F820402824F020292420602F3
:20C80000040292C384013F4100130A120A4CB01236C77C404E00B012C8C5B012B2C60C4A8B
:20C82000B012C8C5B012B2C6B01262C73A4130410F4C4D9307203C4080004CDF4D43B012BD
:20C8400068C6063C3C40C0004CDF4D43B01268C63041F2D080002200F2D0400022001C4329
:20C86000B012FCC8F2D080002100F2D0400021003041E2C302000D123D400E001D83FE2329
:20C880003D410343E2B30200F42332D2304131400004B01292C90C930224B012A8C40C43DD
:20C8A000B01200C0B0128CC90A120A4C043C7C4A5D43B01268C6CA930000F9233A41304172
:20C8C000B24080006201B2400F277201B240500260013041B24020408201B240104984012D
:20C8E000B2402002800130411F4C01000F9305241D53CD43FFFF1F83FB2330410F4C0F934F
:20C9000006243C40E803B01248C91F83FA2330410E4312C30C1001280E5D0D5D0C93F92388
:20C920000C4E30415C434D43B01268C66C434D43B01268C630410F4C0C4D3D4003000D5FCD
:20C940001E4F010030405AC912C30C100C110C93032403431C83FD2330410E9306240F4C66
:20C960001F53FF4DFFFF1E83FB2330413441354136413741384139413A413041B240805A46
:18C980002001304132D01000FD3F03430343FF3F03431C43304130416E
:20C99800436170742E2F75733A00506572696F642F6D733A202031332E3900005065726931
:20C9B8006F642F6D733A2020202020310000506572696F642F6D733A202020392E320000CD
:20C9D800506572696F642F6D733A202020352E330000506572696F642F6D733A202020325F
:20C9F8002E350000506572696F642F75733A2020203333340000506572696F642F6D733A62
:20CA18002020202020320000506572696F642F6D733A2020202020340000506572696F6449
:20CA38002F6D733A2020202031300000506572696F642F6D733A20202020323000002020E6
:04CA5800202020205A
:1ACA5C000101000004FFF000E8C82CC436C9000002005CCA00026ACA0802C4
:02FFDE00FFFF23
:02FFE00084C9D2
:02FFE40084C9CE
:02FFE60084C9CC
:02FFEA0084C9C8
:02FFEC0084C9C6
:02FFEE0084C9C4
:02FFF00084C9C2
:02FFF20084C9C0
:02FFF40084C9BE
:02FFF60084C9BC
:02FFF800E2C75E
:02FFFA0084C9B8
:02FFFC0084C9B6
:02FFFE008EC8AB
:00000001FF
