:20E000000A12B240805A2001B01256E0B012B8E0B0128CE0B012E0E0B01234E10A433A9007
:20E02000E8030B2C824A7401824A76011C43B012FCE01A533A90E803F52B3A40E7030A93FA
:20E04000ED27824A7401824A76011C43B012FCE01A83E427F63FF24010004100C2432100A5
:20E06000F24052002600F24052002200C2432400C2432300C2432900F2F03F002E00C2437D
:20E080002A00C2432C00C2432B003041B24080006201B24060006401B240E0006601B240CD
:20E0A000E7037201B2400A007401B2400A007601B240100260013041C2435800F293FF1058
:20E0C0000824C2435600D242FF105700D242FE105600F2D080005700F24024005300304114
:20E0E000E2C302000D123D400E001D83FE233D410343E2B30200F42332D230410F4C0F932A
:20E1000006243C40E803B01222E11F83FA23304131400003B0124AE10C43B01200E0B01265
:20E1200044E112C30C100C110C93032403431C83FD233041B240805A2001304132D0100000
:0EE14000FD3F03430343FF3F03431C433041B5
:02FFE4003CE1FE
:02FFE6003CE1FC
:02FFE8003CE1FA
:02FFEA003CE1F8
:02FFF0003CE1F2
:02FFF2003CE1F0
:02FFF4003CE1EE
:02FFF6003CE1EC
:02FFFC003CE1E6
:02FFFE0010E110
:00000001FF
