:20E00000B240805A2001B01250E0B0127EE0B012A6E0B012D4E0D2E321000D123D401D4E66
:20E020001D83FE233D41003CB240085A2001F2B22000F123B240045A2001F2E04000210074
:20E040000D123D40953A1D83FE233D41003CF53FF2422100F24041002200F2422700C2435C
:20E060002400C2432300C2432900F2F03F002E00C2432A00C2432C00C2432B003041C243D1
:20E080005800F293FF100824C2435600D242FF105700D242FE105600F2D0B0005700F24020
:20E0A000240053003041E2C302000D123D400E001D83FE233D410343E2B30200F42332D2F0
:20E0C000304131400003B012EAE00C43B01200E0B012E4E0B240045A2001304132D0100064
:0EE0E000FD3F03430343FF3F03431C43304116
:02FFE400DCE05F
:02FFE600DCE05D
:02FFE800DCE05B
:02FFEA00DCE059
:02FFF000DCE053
:02FFF200DCE051
:02FFF400DCE04F
:02FFF600DCE04D
:02FFFC00DCE047
:02FFFE00C2E05F
:00000001FF
