:20E00000C2432100F24041002200C2432400C2432300C2432900F2F03F002E00C2432A0048
:20E02000C2432C00C2432B003041B240805A2001B01200E0B01254E0B0127AE0B012C4E007
:20E04000B012AEE0D2D32100F2F0BF00210032D01000FD3FC2435800F293FF100824C24378
:20E060005600D242FF105700D242FE105600F2D080005700E24253003041B2401000620172
:20E08000B2404FC37201B240D0026001304131400003B012C8E00C43B0122AE0B012BEE01A
:20E0A000F2E041002100B1C0100000000013B240805A2001304132D01000FD3F0343034360
:0CE0C000FF3F034332D230411C4330418B
:02FFE400B6E085
:02FFE600B6E083
:02FFE800B6E081
:02FFEA00B6E07F
:02FFF000B6E079
:02FFF200A0E08D
:02FFF400B6E075
:02FFF600B6E073
:02FFFC00B6E06D
:02FFFE008EE093
:00000001FF
