:20C00000B240805A2001B0123EC0B01276C0B012A8C0B01214C1B012FEC0D2B35A00042433
:20C020003C402C01B012BCC0D2B35A0004203C406400B012BCC0F2E040002100EE3FC24393
:20C040002100F24080002600F240C1002200C2432400C2432300C2432900F2F03F002E0004
:20C06000C2432A00C2432C00C2432B00C2431900C2431A003041C2435800F293FD100E2461
:20C080000D123D4033821D83FE233D41C2435600D242FD105700D242FC105600F2D0800085
:20C0A0005700E24253003041F2402E005900F24028005A00F24020005B0030410F4C0F93B9
:20C0C00006243C40E803B012E2C01F83FA23304131400004B01218C10C43B01200C0B01298
:20C0E0000EC13CF0FF1F0C5C0C93032403431C83FD233041D2E32100D2C35A000013B240B9
:1CC10000805A2001304132D01000FD3F03430343FF3F034332D230411C43304114
:02FFDE00FFFF23
:02FFE00006C158
:02FFE40006C154
:02FFE60006C152
:02FFEA0006C14E
:02FFEC0006C14C
:02FFEE0006C14A
:02FFF00006C148
:02FFF20006C146
:02FFF40006C144
:02FFF600F4C055
:02FFF80006C140
:02FFFA0006C13E
:02FFFC0006C13C
:02FFFE00D0C071
:00000001FF
